{
  "contractName": "Action",
  "abi": [
    {
      "constant": true,
      "inputs": [],
      "name": "numOfMyRequests",
      "outputs": [
        {
          "name": "",
          "type": "uint256"
        }
      ],
      "payable": false,
      "stateMutability": "view",
      "type": "function"
    },
    {
      "constant": true,
      "inputs": [],
      "name": "minter",
      "outputs": [
        {
          "name": "",
          "type": "address"
        }
      ],
      "payable": false,
      "stateMutability": "view",
      "type": "function"
    },
    {
      "constant": false,
      "inputs": [
        {
          "name": "spender",
          "type": "address"
        },
        {
          "name": "amount",
          "type": "uint256"
        }
      ],
      "name": "approve",
      "outputs": [
        {
          "name": "",
          "type": "bool"
        }
      ],
      "payable": false,
      "stateMutability": "nonpayable",
      "type": "function"
    },
    {
      "constant": true,
      "inputs": [
        {
          "name": "id",
          "type": "uint256"
        }
      ],
      "name": "myRequestAt",
      "outputs": [
        {
          "name": "",
          "type": "uint256"
        },
        {
          "name": "",
          "type": "address"
        },
        {
          "name": "",
          "type": "string"
        },
        {
          "name": "",
          "type": "uint256"
        },
        {
          "name": "",
          "type": "bool"
        },
        {
          "name": "",
          "type": "uint256"
        }
      ],
      "payable": false,
      "stateMutability": "view",
      "type": "function"
    },
    {
      "constant": true,
      "inputs": [],
      "name": "totalSupply",
      "outputs": [
        {
          "name": "",
          "type": "uint256"
        }
      ],
      "payable": false,
      "stateMutability": "view",
      "type": "function"
    },
    {
      "constant": false,
      "inputs": [
        {
          "name": "sender",
          "type": "address"
        },
        {
          "name": "recipient",
          "type": "address"
        },
        {
          "name": "amount",
          "type": "uint256"
        }
      ],
      "name": "transferFrom",
      "outputs": [
        {
          "name": "",
          "type": "bool"
        }
      ],
      "payable": false,
      "stateMutability": "nonpayable",
      "type": "function"
    },
    {
      "constant": false,
      "inputs": [],
      "name": "payFee",
      "outputs": [
        {
          "name": "",
          "type": "bool"
        }
      ],
      "payable": false,
      "stateMutability": "nonpayable",
      "type": "function"
    },
    {
      "constant": false,
      "inputs": [
        {
          "name": "id",
          "type": "uint256"
        }
      ],
      "name": "cancelRequest",
      "outputs": [
        {
          "name": "",
          "type": "bool"
        }
      ],
      "payable": false,
      "stateMutability": "nonpayable",
      "type": "function"
    },
    {
      "constant": false,
      "inputs": [
        {
          "name": "loanType",
          "type": "string"
        },
        {
          "name": "amount",
          "type": "uint256"
        }
      ],
      "name": "requestLoan",
      "outputs": [
        {
          "name": "",
          "type": "uint256"
        }
      ],
      "payable": false,
      "stateMutability": "nonpayable",
      "type": "function"
    },
    {
      "constant": false,
      "inputs": [
        {
          "name": "spender",
          "type": "address"
        },
        {
          "name": "addedValue",
          "type": "uint256"
        }
      ],
      "name": "increaseAllowance",
      "outputs": [
        {
          "name": "",
          "type": "bool"
        }
      ],
      "payable": false,
      "stateMutability": "nonpayable",
      "type": "function"
    },
    {
      "constant": true,
      "inputs": [
        {
          "name": "id",
          "type": "uint256"
        }
      ],
      "name": "myBankRequestAt",
      "outputs": [
        {
          "name": "",
          "type": "uint256"
        },
        {
          "name": "",
          "type": "address"
        },
        {
          "name": "",
          "type": "uint256"
        },
        {
          "name": "",
          "type": "string"
        },
        {
          "name": "",
          "type": "bool"
        },
        {
          "name": "",
          "type": "string"
        },
        {
          "name": "",
          "type": "uint256"
        }
      ],
      "payable": false,
      "stateMutability": "view",
      "type": "function"
    },
    {
      "constant": true,
      "inputs": [
        {
          "name": "account",
          "type": "address"
        }
      ],
      "name": "balanceOf",
      "outputs": [
        {
          "name": "",
          "type": "uint256"
        }
      ],
      "payable": false,
      "stateMutability": "view",
      "type": "function"
    },
    {
      "constant": false,
      "inputs": [],
      "name": "registerBank",
      "outputs": [
        {
          "name": "",
          "type": "bool"
        }
      ],
      "payable": false,
      "stateMutability": "nonpayable",
      "type": "function"
    },
    {
      "constant": true,
      "inputs": [
        {
          "name": "id",
          "type": "uint256"
        }
      ],
      "name": "bankRequestAt",
      "outputs": [
        {
          "name": "",
          "type": "uint256"
        },
        {
          "name": "",
          "type": "address"
        },
        {
          "name": "",
          "type": "uint256"
        },
        {
          "name": "",
          "type": "string"
        },
        {
          "name": "",
          "type": "bool"
        },
        {
          "name": "",
          "type": "string"
        },
        {
          "name": "",
          "type": "uint256"
        }
      ],
      "payable": false,
      "stateMutability": "view",
      "type": "function"
    },
    {
      "constant": false,
      "inputs": [
        {
          "name": "LRid",
          "type": "uint256"
        },
        {
          "name": "requesting",
          "type": "string"
        },
        {
          "name": "bankName",
          "type": "string"
        }
      ],
      "name": "requestDocument",
      "outputs": [
        {
          "name": "",
          "type": "uint256"
        }
      ],
      "payable": false,
      "stateMutability": "nonpayable",
      "type": "function"
    },
    {
      "constant": true,
      "inputs": [],
      "name": "numOfMyBankRequests",
      "outputs": [
        {
          "name": "",
          "type": "uint256"
        }
      ],
      "payable": false,
      "stateMutability": "view",
      "type": "function"
    },
    {
      "constant": true,
      "inputs": [],
      "name": "numOfAllRequests",
      "outputs": [
        {
          "name": "",
          "type": "uint256"
        }
      ],
      "payable": false,
      "stateMutability": "view",
      "type": "function"
    },
    {
      "constant": true,
      "inputs": [
        {
          "name": "LRId",
          "type": "uint256"
        },
        {
          "name": "idx",
          "type": "uint256"
        }
      ],
      "name": "getDocumentsByLRId",
      "outputs": [
        {
          "name": "",
          "type": "uint256"
        },
        {
          "name": "",
          "type": "address"
        },
        {
          "name": "",
          "type": "uint256"
        },
        {
          "name": "",
          "type": "string"
        },
        {
          "name": "",
          "type": "bool"
        },
        {
          "name": "",
          "type": "string"
        },
        {
          "name": "",
          "type": "uint256"
        }
      ],
      "payable": false,
      "stateMutability": "view",
      "type": "function"
    },
    {
      "constant": true,
      "inputs": [
        {
          "name": "id",
          "type": "uint256"
        }
      ],
      "name": "requestAt",
      "outputs": [
        {
          "name": "",
          "type": "uint256"
        },
        {
          "name": "",
          "type": "address"
        },
        {
          "name": "",
          "type": "string"
        },
        {
          "name": "",
          "type": "uint256"
        },
        {
          "name": "",
          "type": "bool"
        },
        {
          "name": "",
          "type": "uint256"
        }
      ],
      "payable": false,
      "stateMutability": "view",
      "type": "function"
    },
    {
      "constant": false,
      "inputs": [
        {
          "name": "spender",
          "type": "address"
        },
        {
          "name": "subtractedValue",
          "type": "uint256"
        }
      ],
      "name": "decreaseAllowance",
      "outputs": [
        {
          "name": "",
          "type": "bool"
        }
      ],
      "payable": false,
      "stateMutability": "nonpayable",
      "type": "function"
    },
    {
      "constant": false,
      "inputs": [
        {
          "name": "recipient",
          "type": "address"
        },
        {
          "name": "amount",
          "type": "uint256"
        }
      ],
      "name": "transfer",
      "outputs": [
        {
          "name": "",
          "type": "bool"
        }
      ],
      "payable": false,
      "stateMutability": "nonpayable",
      "type": "function"
    },
    {
      "constant": true,
      "inputs": [],
      "name": "numOfAllBankRequests",
      "outputs": [
        {
          "name": "",
          "type": "uint256"
        }
      ],
      "payable": false,
      "stateMutability": "view",
      "type": "function"
    },
    {
      "constant": false,
      "inputs": [
        {
          "name": "id",
          "type": "uint256"
        }
      ],
      "name": "cancelDocumentRequest",
      "outputs": [
        {
          "name": "",
          "type": "bool"
        }
      ],
      "payable": false,
      "stateMutability": "nonpayable",
      "type": "function"
    },
    {
      "constant": true,
      "inputs": [
        {
          "name": "LRId",
          "type": "uint256"
        }
      ],
      "name": "getDocumentsLength",
      "outputs": [
        {
          "name": "",
          "type": "uint256"
        }
      ],
      "payable": false,
      "stateMutability": "view",
      "type": "function"
    },
    {
      "constant": false,
      "inputs": [],
      "name": "registerRequester",
      "outputs": [
        {
          "name": "",
          "type": "bool"
        }
      ],
      "payable": false,
      "stateMutability": "nonpayable",
      "type": "function"
    },
    {
      "constant": true,
      "inputs": [],
      "name": "myBalance",
      "outputs": [
        {
          "name": "",
          "type": "uint256"
        }
      ],
      "payable": false,
      "stateMutability": "view",
      "type": "function"
    },
    {
      "constant": true,
      "inputs": [
        {
          "name": "owner",
          "type": "address"
        },
        {
          "name": "spender",
          "type": "address"
        }
      ],
      "name": "allowance",
      "outputs": [
        {
          "name": "",
          "type": "uint256"
        }
      ],
      "payable": false,
      "stateMutability": "view",
      "type": "function"
    },
    {
      "anonymous": false,
      "inputs": [
        {
          "indexed": false,
          "name": "id",
          "type": "uint256"
        }
      ],
      "name": "Accept",
      "type": "event"
    },
    {
      "anonymous": false,
      "inputs": [
        {
          "indexed": false,
          "name": "id",
          "type": "uint256"
        }
      ],
      "name": "Reject",
      "type": "event"
    },
    {
      "anonymous": false,
      "inputs": [
        {
          "indexed": true,
          "name": "bank",
          "type": "address"
        }
      ],
      "name": "RegisterBank",
      "type": "event"
    },
    {
      "anonymous": false,
      "inputs": [
        {
          "indexed": true,
          "name": "bank",
          "type": "address"
        },
        {
          "indexed": false,
          "name": "docRequestId",
          "type": "uint256"
        },
        {
          "indexed": false,
          "name": "LRid",
          "type": "uint256"
        },
        {
          "indexed": false,
          "name": "requesting",
          "type": "string"
        }
      ],
      "name": "RequestDocument",
      "type": "event"
    },
    {
      "anonymous": false,
      "inputs": [
        {
          "indexed": true,
          "name": "bank",
          "type": "address"
        },
        {
          "indexed": false,
          "name": "docRequestId",
          "type": "uint256"
        },
        {
          "indexed": false,
          "name": "LRid",
          "type": "uint256"
        },
        {
          "indexed": false,
          "name": "requesting",
          "type": "string"
        }
      ],
      "name": "CancelDocumentRequest",
      "type": "event"
    },
    {
      "anonymous": false,
      "inputs": [
        {
          "indexed": true,
          "name": "requester",
          "type": "address"
        }
      ],
      "name": "RegisterRequester",
      "type": "event"
    },
    {
      "anonymous": false,
      "inputs": [
        {
          "indexed": true,
          "name": "requester",
          "type": "address"
        },
        {
          "indexed": false,
          "name": "requestId",
          "type": "uint256"
        },
        {
          "indexed": false,
          "name": "loanType",
          "type": "string"
        },
        {
          "indexed": false,
          "name": "amount",
          "type": "uint256"
        }
      ],
      "name": "RequestLoan",
      "type": "event"
    },
    {
      "anonymous": false,
      "inputs": [
        {
          "indexed": true,
          "name": "requester",
          "type": "address"
        },
        {
          "indexed": false,
          "name": "requestId",
          "type": "uint256"
        },
        {
          "indexed": false,
          "name": "loanType",
          "type": "string"
        },
        {
          "indexed": false,
          "name": "amount",
          "type": "uint256"
        }
      ],
      "name": "CancelRequest",
      "type": "event"
    },
    {
      "anonymous": false,
      "inputs": [
        {
          "indexed": true,
          "name": "from",
          "type": "address"
        },
        {
          "indexed": true,
          "name": "to",
          "type": "address"
        },
        {
          "indexed": false,
          "name": "value",
          "type": "uint256"
        }
      ],
      "name": "Transfer",
      "type": "event"
    },
    {
      "anonymous": false,
      "inputs": [
        {
          "indexed": true,
          "name": "owner",
          "type": "address"
        },
        {
          "indexed": true,
          "name": "spender",
          "type": "address"
        },
        {
          "indexed": false,
          "name": "value",
          "type": "uint256"
        }
      ],
      "name": "Approval",
      "type": "event"
    },
    {
      "constant": false,
      "inputs": [
        {
          "name": "loanRequestID",
          "type": "uint256"
        },
        {
          "name": "idx",
          "type": "uint256"
        }
      ],
      "name": "accept",
      "outputs": [],
      "payable": false,
      "stateMutability": "nonpayable",
      "type": "function"
    },
    {
      "constant": false,
      "inputs": [
        {
          "name": "loanRequestID",
          "type": "uint256"
        },
        {
          "name": "idx",
          "type": "uint256"
        }
      ],
      "name": "reject",
      "outputs": [],
      "payable": false,
      "stateMutability": "nonpayable",
      "type": "function"
    }
  ],
  "bytecode": "0x6080604052614e2060045533600360006101000a81548173ffffffffffffffffffffffffffffffffffffffff021916908373ffffffffffffffffffffffffffffffffffffffff160217905550620000623364e8d4a510006200006860201b60201c565b62000204565b600073ffffffffffffffffffffffffffffffffffffffff168273ffffffffffffffffffffffffffffffffffffffff1614156200010c576040517f08c379a000000000000000000000000000000000000000000000000000000000815260040180806020018281038252601f8152602001807f45524332303a206d696e7420746f20746865207a65726f20616464726573730081525060200191505060405180910390fd5b8060025401600281905550806000808473ffffffffffffffffffffffffffffffffffffffff1673ffffffffffffffffffffffffffffffffffffffff16815260200190815260200160002054016000808473ffffffffffffffffffffffffffffffffffffffff1673ffffffffffffffffffffffffffffffffffffffff168152602001908152602001600020819055508173ffffffffffffffffffffffffffffffffffffffff16600073ffffffffffffffffffffffffffffffffffffffff167fddf252ad1be2c89b69c2b068fc378daa952ba7f163c4a11628f55a4df523b3ef836040518082815260200191505060405180910390a35050565b6137b780620002146000396000f3fe608060405234801561001057600080fd5b50600436106101cf5760003560e01c806375d8f84011610104578063a457c2d7116100a2578063be697a1111610071578063be697a1114610e1d578063c16d454f14610e5f578063c9116b6914610e81578063dd62ed3e14610e9f576101cf565b8063a457c2d714610ced578063a9059cbb14610d53578063b40cf71914610db9578063b6f964ae14610dd7576101cf565b80638b41dfc9116100de5780638b41dfc914610a475780638f7980a814610a65578063951420a814610a835780639d0a912514610bf3576101cf565b806375d8f840146107bd578063781454f41461092357806386b2375c14610a0f576101cf565b80632961025211610171578063395093511161014b57806339509351146105775780635facf140146105dd57806370a0823114610743578063734f4eaf1461079b576101cf565b806329610252146104785780633015394c1461049a57806331480160146104e0576101cf565b8063095ea7b3116101ad578063095ea7b31461027457806311710665146102da57806318160ddd146103d457806323b872dd146103f2576101cf565b806304323747146101d457806307546172146101f2578063093584791461023c575b600080fd5b6101dc610f17565b6040518082815260200191505060405180910390f35b6101fa610fc4565b604051808273ffffffffffffffffffffffffffffffffffffffff1673ffffffffffffffffffffffffffffffffffffffff16815260200191505060405180910390f35b6102726004803603604081101561025257600080fd5b810190808035906020019092919080359060200190929190505050610fea565b005b6102c06004803603604081101561028a57600080fd5b81019080803573ffffffffffffffffffffffffffffffffffffffff16906020019092919080359060200190929190505050611177565b604051808215151515815260200191505060405180910390f35b610306600480360360208110156102f057600080fd5b810190808035906020019092919050505061118e565b604051808781526020018673ffffffffffffffffffffffffffffffffffffffff1673ffffffffffffffffffffffffffffffffffffffff1681526020018060200185815260200184151515158152602001838152602001828103825286818151815260200191508051906020019080838360005b83811015610394578082015181840152602081019050610379565b50505050905090810190601f1680156103c15780820380516001836020036101000a031916815260200191505b5097505050505050505060405180910390f35b6103dc61136d565b6040518082815260200191505060405180910390f35b61045e6004803603606081101561040857600080fd5b81019080803573ffffffffffffffffffffffffffffffffffffffff169060200190929190803573ffffffffffffffffffffffffffffffffffffffff16906020019092919080359060200190929190505050611377565b604051808215151515815260200191505060405180910390f35b6104806114ed565b604051808215151515815260200191505060405180910390f35b6104c6600480360360208110156104b057600080fd5b8101908080359060200190929190505050611525565b604051808215151515815260200191505060405180910390f35b610561600480360360408110156104f657600080fd5b810190808035906020019064010000000081111561051357600080fd5b82018360208201111561052557600080fd5b8035906020019184600183028401116401000000008311171561054757600080fd5b90919293919293908035906020019092919050505061175a565b6040518082815260200191505060405180910390f35b6105c36004803603604081101561058d57600080fd5b81019080803573ffffffffffffffffffffffffffffffffffffffff16906020019092919080359060200190929190505050611a1b565b604051808215151515815260200191505060405180910390f35b610609600480360360208110156105f357600080fd5b8101908080359060200190929190505050611ab0565b604051808881526020018773ffffffffffffffffffffffffffffffffffffffff1673ffffffffffffffffffffffffffffffffffffffff168152602001868152602001806020018515151515815260200180602001848152602001838103835287818151815260200191508051906020019080838360005b8381101561069b578082015181840152602081019050610680565b50505050905090810190601f1680156106c85780820380516001836020036101000a031916815260200191505b50838103825285818151815260200191508051906020019080838360005b838110156107015780820151818401526020810190506106e6565b50505050905090810190601f16801561072e5780820380516001836020036101000a031916815260200191505b50995050505050505050505060405180910390f35b6107856004803603602081101561075957600080fd5b81019080803573ffffffffffffffffffffffffffffffffffffffff169060200190929190505050611db1565b6040518082815260200191505060405180910390f35b6107a3611df9565b604051808215151515815260200191505060405180910390f35b6107e9600480360360208110156107d357600080fd5b8101908080359060200190929190505050611ea0565b604051808881526020018773ffffffffffffffffffffffffffffffffffffffff1673ffffffffffffffffffffffffffffffffffffffff168152602001868152602001806020018515151515815260200180602001848152602001838103835287818151815260200191508051906020019080838360005b8381101561087b578082015181840152602081019050610860565b50505050905090810190601f1680156108a85780820380516001836020036101000a031916815260200191505b50838103825285818151815260200191508051906020019080838360005b838110156108e15780820151818401526020810190506108c6565b50505050905090810190601f16801561090e5780820380516001836020036101000a031916815260200191505b50995050505050505050505060405180910390f35b6109f96004803603606081101561093957600080fd5b81019080803590602001909291908035906020019064010000000081111561096057600080fd5b82018360208201111561097257600080fd5b8035906020019184600183028401116401000000008311171561099457600080fd5b9091929391929390803590602001906401000000008111156109b557600080fd5b8201836020820111156109c757600080fd5b803590602001918460018302840111640100000000831117156109e957600080fd5b9091929391929390505050612144565b6040518082815260200191505060405180910390f35b610a4560048036036040811015610a2557600080fd5b8101908080359060200190929190803590602001909291905050506124b4565b005b610a4f61259c565b6040518082815260200191505060405180910390f35b610a6d612649565b6040518082815260200191505060405180910390f35b610ab960048036036040811015610a9957600080fd5b810190808035906020019092919080359060200190929190505050612656565b604051808881526020018773ffffffffffffffffffffffffffffffffffffffff1673ffffffffffffffffffffffffffffffffffffffff168152602001868152602001806020018515151515815260200180602001848152602001838103835287818151815260200191508051906020019080838360005b83811015610b4b578082015181840152602081019050610b30565b50505050905090810190601f168015610b785780820380516001836020036101000a031916815260200191505b50838103825285818151815260200191508051906020019080838360005b83811015610bb1578082015181840152602081019050610b96565b50505050905090810190601f168015610bde5780820380516001836020036101000a031916815260200191505b50995050505050505050505060405180910390f35b610c1f60048036036020811015610c0957600080fd5b81019080803590602001909291905050506128c8565b604051808781526020018673ffffffffffffffffffffffffffffffffffffffff1673ffffffffffffffffffffffffffffffffffffffff1681526020018060200185815260200184151515158152602001838152602001828103825286818151815260200191508051906020019080838360005b83811015610cad578082015181840152602081019050610c92565b50505050905090810190601f168015610cda5780820380516001836020036101000a031916815260200191505b5097505050505050505060405180910390f35b610d3960048036036040811015610d0357600080fd5b81019080803573ffffffffffffffffffffffffffffffffffffffff16906020019092919080359060200190929190505050612a4b565b604051808215151515815260200191505060405180910390f35b610d9f60048036036040811015610d6957600080fd5b81019080803573ffffffffffffffffffffffffffffffffffffffff16906020019092919080359060200190929190505050612bb5565b604051808215151515815260200191505060405180910390f35b610dc1612bcc565b6040518082815260200191505060405180910390f35b610e0360048036036020811015610ded57600080fd5b8101908080359060200190929190505050612c39565b604051808215151515815260200191505060405180910390f35b610e4960048036036020811015610e3357600080fd5b8101908080359060200190929190505050612e78565b6040518082815260200191505060405180910390f35b610e67612e98565b604051808215151515815260200191505060405180910390f35b610e89612f3f565b6040518082815260200191505060405180910390f35b610f0160048036036040811015610eb557600080fd5b81019080803573ffffffffffffffffffffffffffffffffffffffff169060200190929190803573ffffffffffffffffffffffffffffffffffffffff169060200190929190505050612f85565b6040518082815260200191505060405180910390f35b600060011515600560003373ffffffffffffffffffffffffffffffffffffffff1673ffffffffffffffffffffffffffffffffffffffff16815260200190815260200160002060010160009054906101000a900460ff16151514610f7957600080fd5b600560003373ffffffffffffffffffffffffffffffffffffffff1673ffffffffffffffffffffffffffffffffffffffff16815260200190815260200160002060000180549050905090565b600360009054906101000a900473ffffffffffffffffffffffffffffffffffffffff1681565b600060086000848152602001908152602001600020805490509050600060086000858152602001908152602001600020838154811061102557fe5b9060005260206000200154905060008090505b828110156111395783811461112c57600060086000878152602001908152602001600020828154811061106757fe5b9060005260206000200154905060006009828154811061108357fe5b906000526020600020906006020160040160006101000a81548160ff0219169083151502179055506110f2600982815481106110bb57fe5b906000526020600020906006020160000160009054906101000a900473ffffffffffffffffffffffffffffffffffffffff1661300c565b507f230a38fb21a3287e57c3ebd56f136d3ad90c112593989004d4c1c05676c19def816040518082815260200191505060405180910390a1505b8080600101915050611038565b507fa573f6e77cec35b255a3fb35b673473461473d63e293d50c5eba0d7d18942383816040518082815260200191505060405180910390a150505050565b6000611184338484613046565b6001905092915050565b6000806060600080600080600560003373ffffffffffffffffffffffffffffffffffffffff1673ffffffffffffffffffffffffffffffffffffffff16815260200190815260200160002060000188815481106111e657fe5b90600052602060002001549050806006828154811061120157fe5b906000526020600020906005020160000160009054906101000a900473ffffffffffffffffffffffffffffffffffffffff166006838154811061124057fe5b90600052602060002090600502016001016006848154811061125e57fe5b9060005260206000209060050201600201546006858154811061127d57fe5b906000526020600020906005020160030160009054906101000a900460ff16600686815481106112a957fe5b906000526020600020906005020160040154838054600181600116156101000203166002900480601f0160208091040260200160405190810160405280929190818152602001828054600181600116156101000203166002900480156113505780601f1061132557610100808354040283529160200191611350565b820191906000526020600020905b81548152906001019060200180831161133357829003601f168201915b505050505093509650965096509650965096505091939550919395565b6000600254905090565b6000600160008573ffffffffffffffffffffffffffffffffffffffff1673ffffffffffffffffffffffffffffffffffffffff16815260200190815260200160002060003373ffffffffffffffffffffffffffffffffffffffff1673ffffffffffffffffffffffffffffffffffffffff1681526020019081526020016000205482111561144e576040517f08c379a00000000000000000000000000000000000000000000000000000000081526004018080602001828103825260288152602001806136f66028913960400191505060405180910390fd5b61145984848461323d565b6114e2843384600160008973ffffffffffffffffffffffffffffffffffffffff1673ffffffffffffffffffffffffffffffffffffffff16815260200190815260200160002060003373ffffffffffffffffffffffffffffffffffffffff1673ffffffffffffffffffffffffffffffffffffffff1681526020019081526020016000205403613046565b600190509392505050565b600061151e33600360009054906101000a900473ffffffffffffffffffffffffffffffffffffffff1660045461323d565b6001905090565b600060011515600560003373ffffffffffffffffffffffffffffffffffffffff1673ffffffffffffffffffffffffffffffffffffffff16815260200190815260200160002060010160009054906101000a900460ff1615151461158757600080fd5b813373ffffffffffffffffffffffffffffffffffffffff16600682815481106115ac57fe5b906000526020600020906005020160000160009054906101000a900473ffffffffffffffffffffffffffffffffffffffff1673ffffffffffffffffffffffffffffffffffffffff16146115fe57600080fd5b60006006848154811061160d57fe5b906000526020600020906005020160030160006101000a81548160ff0219169083151502179055503373ffffffffffffffffffffffffffffffffffffffff167fbe82359834f1c621ed28d616957451b17ad5b000cc1eb4f8133f49c5d4790df7846006868154811061167b57fe5b90600052602060002090600502016001016006878154811061169957fe5b90600052602060002090600502016002015460405180848152602001806020018381526020018281038252848181546001816001161561010002031660029004815260200191508054600181600116156101000203166002900480156117405780601f1061171557610100808354040283529160200191611740565b820191906000526020600020905b81548152906001019060200180831161172357829003601f168201915b505094505050505060405180910390a26001915050919050565b600060011515600560003373ffffffffffffffffffffffffffffffffffffffff1673ffffffffffffffffffffffffffffffffffffffff16815260200190815260200160002060010160009054906101000a900460ff161515146117bc57600080fd5b6117c4613550565b6040518060a001604052803373ffffffffffffffffffffffffffffffffffffffff16815260200186868080601f016020809104026020016040519081016040528093929190818152602001838380828437600081840152601f19601f820116905080830192505050505050508152602001848152602001600115158152602001428152509050600060016006839080600181540180825580915050906001820390600052602060002090600502016000909192909190915060008201518160000160006101000a81548173ffffffffffffffffffffffffffffffffffffffff021916908373ffffffffffffffffffffffffffffffffffffffff16021790555060208201518160010190805190602001906118df929190613597565b506040820151816002015560608201518160030160006101000a81548160ff021916908315150217905550608082015181600401555050039050600560003373ffffffffffffffffffffffffffffffffffffffff1673ffffffffffffffffffffffffffffffffffffffff1681526020019081526020016000206000018190806001815401808255809150509060018203906000526020600020016000909192909190915055503373ffffffffffffffffffffffffffffffffffffffff167ff33b8268df035d5c6e1973c61f49b84297517f849a596590753f2ae35f1f2e7b8288888860405180858152602001806020018381526020018281038252858582818152602001925080828437600081840152601f19601f8201169050808301925050509550505050505060405180910390a280925050509392505050565b6000611aa6338484600160003373ffffffffffffffffffffffffffffffffffffffff1673ffffffffffffffffffffffffffffffffffffffff16815260200190815260200160002060008873ffffffffffffffffffffffffffffffffffffffff1673ffffffffffffffffffffffffffffffffffffffff1681526020019081526020016000205401613046565b6001905092915050565b6000806000606060006060600060011515600760003373ffffffffffffffffffffffffffffffffffffffff1673ffffffffffffffffffffffffffffffffffffffff16815260200190815260200160002060010160009054906101000a900460ff16151514611b1d57600080fd5b6000600760003373ffffffffffffffffffffffffffffffffffffffff1673ffffffffffffffffffffffffffffffffffffffff1681526020019081526020016000206000018981548110611b6c57fe5b906000526020600020015490508060098281548110611b8757fe5b906000526020600020906006020160000160009054906101000a900473ffffffffffffffffffffffffffffffffffffffff1660098381548110611bc657fe5b90600052602060002090600602016001015460098481548110611be557fe5b906000526020600020906006020160020160098581548110611c0357fe5b906000526020600020906006020160040160009054906101000a900460ff1660098681548110611c2f57fe5b906000526020600020906006020160030160098781548110611c4d57fe5b906000526020600020906006020160050154838054600181600116156101000203166002900480601f016020809104026020016040519081016040528092919081815260200182805460018160011615610100020316600290048015611cf45780601f10611cc957610100808354040283529160200191611cf4565b820191906000526020600020905b815481529060010190602001808311611cd757829003601f168201915b50505050509350818054600181600116156101000203166002900480601f016020809104026020016040519081016040528092919081815260200182805460018160011615610100020316600290048015611d905780601f10611d6557610100808354040283529160200191611d90565b820191906000526020600020905b815481529060010190602001808311611d7357829003601f168201915b50505050509150975097509750975097509750975050919395979092949650565b60008060008373ffffffffffffffffffffffffffffffffffffffff1673ffffffffffffffffffffffffffffffffffffffff168152602001908152602001600020549050919050565b60006001600760003373ffffffffffffffffffffffffffffffffffffffff1673ffffffffffffffffffffffffffffffffffffffff16815260200190815260200160002060010160006101000a81548160ff0219169083151502179055503373ffffffffffffffffffffffffffffffffffffffff167fa98431cd5e707e1ec79ee9674999f153e81dfbbbbbb1349bc9fb6a41e97a809a60405160405180910390a26001905090565b6000806000606060006060600060011515600760003373ffffffffffffffffffffffffffffffffffffffff1673ffffffffffffffffffffffffffffffffffffffff16815260200190815260200160002060010160009054906101000a900460ff16151514611f0d57600080fd5b8760098981548110611f1b57fe5b906000526020600020906006020160000160009054906101000a900473ffffffffffffffffffffffffffffffffffffffff1660098a81548110611f5a57fe5b90600052602060002090600602016001015460098b81548110611f7957fe5b906000526020600020906006020160020160098c81548110611f9757fe5b906000526020600020906006020160040160009054906101000a900460ff1660098d81548110611fc357fe5b906000526020600020906006020160030160098e81548110611fe157fe5b906000526020600020906006020160050154838054600181600116156101000203166002900480601f0160208091040260200160405190810160405280929190818152602001828054600181600116156101000203166002900480156120885780601f1061205d57610100808354040283529160200191612088565b820191906000526020600020905b81548152906001019060200180831161206b57829003601f168201915b50505050509350818054600181600116156101000203166002900480601f0160208091040260200160405190810160405280929190818152602001828054600181600116156101000203166002900480156121245780601f106120f957610100808354040283529160200191612124565b820191906000526020600020905b81548152906001019060200180831161210757829003601f168201915b505050505091509650965096509650965096509650919395979092949650565b600060011515600760003373ffffffffffffffffffffffffffffffffffffffff1673ffffffffffffffffffffffffffffffffffffffff16815260200190815260200160002060010160009054906101000a900460ff161515146121a657600080fd5b6121ae613617565b6040518060c001604052803373ffffffffffffffffffffffffffffffffffffffff16815260200188815260200187878080601f016020809104026020016040519081016040528093929190818152602001838380828437600081840152601f19601f82011690508083019250505050505050815260200185858080601f016020809104026020016040519081016040528093929190818152602001838380828437600081840152601f19601f820116905080830192505050505050508152602001600115158152602001428152509050600060016009839080600181540180825580915050906001820390600052602060002090600602016000909192909190915060008201518160000160006101000a81548173ffffffffffffffffffffffffffffffffffffffff021916908373ffffffffffffffffffffffffffffffffffffffff16021790555060208201518160010155604082015181600201908051906020019061231d929190613597565b50606082015181600301908051906020019061233a929190613597565b5060808201518160040160006101000a81548160ff02191690831515021790555060a082015181600501555050039050600760003373ffffffffffffffffffffffffffffffffffffffff1673ffffffffffffffffffffffffffffffffffffffff1681526020019081526020016000206000018190806001815401808255809150509060018203906000526020600020016000909192909190915055506008600089815260200190815260200160002081908060018154018082558091505090600182039060005260206000200160009091929091909150555061241b6114ed565b503373ffffffffffffffffffffffffffffffffffffffff167f9a71a4128307539184b8e61612530f3e8585836a3a60a911a3f39fd3b86cd408828a8a8a60405180858152602001848152602001806020018281038252848482818152602001925080828437600081840152601f19601f8201169050808301925050509550505050505060405180910390a2809250505095945050505050565b60006008600084815260200190815260200160002082815481106124d457fe5b906000526020600020015490506000600982815481106124f057fe5b906000526020600020906006020160040160006101000a81548160ff02191690831515021790555061255f6009828154811061252857fe5b906000526020600020906006020160000160009054906101000a900473ffffffffffffffffffffffffffffffffffffffff1661300c565b507f230a38fb21a3287e57c3ebd56f136d3ad90c112593989004d4c1c05676c19def816040518082815260200191505060405180910390a1505050565b600060011515600760003373ffffffffffffffffffffffffffffffffffffffff1673ffffffffffffffffffffffffffffffffffffffff16815260200190815260200160002060010160009054906101000a900460ff161515146125fe57600080fd5b600760003373ffffffffffffffffffffffffffffffffffffffff1673ffffffffffffffffffffffffffffffffffffffff16815260200190815260200160002060000180549050905090565b6000600680549050905090565b6000806000606060006060600080600860008b8152602001908152602001600020898154811061268257fe5b90600052602060002001549050806009828154811061269d57fe5b906000526020600020906006020160000160009054906101000a900473ffffffffffffffffffffffffffffffffffffffff16600983815481106126dc57fe5b906000526020600020906006020160010154600984815481106126fb57fe5b90600052602060002090600602016002016009858154811061271957fe5b906000526020600020906006020160040160009054906101000a900460ff166009868154811061274557fe5b90600052602060002090600602016003016009878154811061276357fe5b906000526020600020906006020160050154838054600181600116156101000203166002900480601f01602080910402602001604051908101604052809291908181526020018280546001816001161561010002031660029004801561280a5780601f106127df5761010080835404028352916020019161280a565b820191906000526020600020905b8154815290600101906020018083116127ed57829003601f168201915b50505050509350818054600181600116156101000203166002900480601f0160208091040260200160405190810160405280929190818152602001828054600181600116156101000203166002900480156128a65780601f1061287b576101008083540402835291602001916128a6565b820191906000526020600020905b81548152906001019060200180831161288957829003601f168201915b5050505050915097509750975097509750975097505092959891949750929550565b6000806060600080600086600688815481106128e057fe5b906000526020600020906005020160000160009054906101000a900473ffffffffffffffffffffffffffffffffffffffff166006898154811061291f57fe5b906000526020600020906005020160010160068a8154811061293d57fe5b90600052602060002090600502016002015460068b8154811061295c57fe5b906000526020600020906005020160030160009054906101000a900460ff1660068c8154811061298857fe5b906000526020600020906005020160040154838054600181600116156101000203166002900480601f016020809104026020016040519081016040528092919081815260200182805460018160011615610100020316600290048015612a2f5780601f10612a0457610100808354040283529160200191612a2f565b820191906000526020600020905b815481529060010190602001808311612a1257829003601f168201915b5050505050935095509550955095509550955091939550919395565b6000600160003373ffffffffffffffffffffffffffffffffffffffff1673ffffffffffffffffffffffffffffffffffffffff16815260200190815260200160002060008473ffffffffffffffffffffffffffffffffffffffff1673ffffffffffffffffffffffffffffffffffffffff16815260200190815260200160002054821115612b22576040517f08c379a00000000000000000000000000000000000000000000000000000000081526004018080602001828103825260258152602001806137676025913960400191505060405180910390fd5b612bab338484600160003373ffffffffffffffffffffffffffffffffffffffff1673ffffffffffffffffffffffffffffffffffffffff16815260200190815260200160002060008873ffffffffffffffffffffffffffffffffffffffff1673ffffffffffffffffffffffffffffffffffffffff1681526020019081526020016000205403613046565b6001905092915050565b6000612bc233848461323d565b6001905092915050565b600060011515600760003373ffffffffffffffffffffffffffffffffffffffff1673ffffffffffffffffffffffffffffffffffffffff16815260200190815260200160002060010160009054906101000a900460ff16151514612c2e57600080fd5b600980549050905090565b600060011515600760003373ffffffffffffffffffffffffffffffffffffffff1673ffffffffffffffffffffffffffffffffffffffff16815260200190815260200160002060010160009054906101000a900460ff16151514612c9b57600080fd5b813373ffffffffffffffffffffffffffffffffffffffff1660098281548110612cc057fe5b906000526020600020906006020160000160009054906101000a900473ffffffffffffffffffffffffffffffffffffffff1673ffffffffffffffffffffffffffffffffffffffff1614612d1257600080fd5b600060098481548110612d2157fe5b906000526020600020906006020160040160006101000a81548160ff021916908315150217905550612d523361300c565b503373ffffffffffffffffffffffffffffffffffffffff167fbac7a3574e995a1456ae14f87e8c7033c1479d2398f2a315e0ca28e9a5214beb8460098681548110612d9957fe5b90600052602060002090600602016001015460098781548110612db857fe5b90600052602060002090600602016002016040518084815260200183815260200180602001828103825283818154600181600116156101000203166002900481526020019150805460018160011615610100020316600290048015612e5e5780601f10612e3357610100808354040283529160200191612e5e565b820191906000526020600020905b815481529060010190602001808311612e4157829003601f168201915b505094505050505060405180910390a26001915050919050565b600060086000838152602001908152602001600020805490509050919050565b60006001600560003373ffffffffffffffffffffffffffffffffffffffff1673ffffffffffffffffffffffffffffffffffffffff16815260200190815260200160002060010160006101000a81548160ff0219169083151502179055503373ffffffffffffffffffffffffffffffffffffffff167f70279d93f0e3a3543f654edc0ace7603cd037604bedd6503597ed0e923b4536860405160405180910390a26001905090565b60008060003373ffffffffffffffffffffffffffffffffffffffff1673ffffffffffffffffffffffffffffffffffffffff16815260200190815260200160002054905090565b6000600160008473ffffffffffffffffffffffffffffffffffffffff1673ffffffffffffffffffffffffffffffffffffffff16815260200190815260200160002060008373ffffffffffffffffffffffffffffffffffffffff1673ffffffffffffffffffffffffffffffffffffffff16815260200190815260200160002054905092915050565b600061303d600360009054906101000a900473ffffffffffffffffffffffffffffffffffffffff168360045461323d565b60019050919050565b600073ffffffffffffffffffffffffffffffffffffffff168373ffffffffffffffffffffffffffffffffffffffff1614156130cc576040517f08c379a00000000000000000000000000000000000000000000000000000000081526004018080602001828103825260248152602001806137436024913960400191505060405180910390fd5b600073ffffffffffffffffffffffffffffffffffffffff168273ffffffffffffffffffffffffffffffffffffffff161415613152576040517f08c379a00000000000000000000000000000000000000000000000000000000081526004018080602001828103825260228152602001806136ae6022913960400191505060405180910390fd5b80600160008573ffffffffffffffffffffffffffffffffffffffff1673ffffffffffffffffffffffffffffffffffffffff16815260200190815260200160002060008473ffffffffffffffffffffffffffffffffffffffff1673ffffffffffffffffffffffffffffffffffffffff168152602001908152602001600020819055508173ffffffffffffffffffffffffffffffffffffffff168373ffffffffffffffffffffffffffffffffffffffff167f8c5be1e5ebec7d5bd14f71427d1e84f3dd0314c0f7b2291e5b200ac8c7c3b925836040518082815260200191505060405180910390a3505050565b600073ffffffffffffffffffffffffffffffffffffffff168373ffffffffffffffffffffffffffffffffffffffff1614156132c3576040517f08c379a000000000000000000000000000000000000000000000000000000000815260040180806020018281038252602581526020018061371e6025913960400191505060405180910390fd5b600073ffffffffffffffffffffffffffffffffffffffff168273ffffffffffffffffffffffffffffffffffffffff161415613349576040517f08c379a000000000000000000000000000000000000000000000000000000000815260040180806020018281038252602381526020018061368b6023913960400191505060405180910390fd5b6000808473ffffffffffffffffffffffffffffffffffffffff1673ffffffffffffffffffffffffffffffffffffffff168152602001908152602001600020548111156133e0576040517f08c379a00000000000000000000000000000000000000000000000000000000081526004018080602001828103825260268152602001806136d06026913960400191505060405180910390fd5b806000808573ffffffffffffffffffffffffffffffffffffffff1673ffffffffffffffffffffffffffffffffffffffff16815260200190815260200160002054036000808573ffffffffffffffffffffffffffffffffffffffff1673ffffffffffffffffffffffffffffffffffffffff16815260200190815260200160002081905550806000808473ffffffffffffffffffffffffffffffffffffffff1673ffffffffffffffffffffffffffffffffffffffff16815260200190815260200160002054016000808473ffffffffffffffffffffffffffffffffffffffff1673ffffffffffffffffffffffffffffffffffffffff168152602001908152602001600020819055508173ffffffffffffffffffffffffffffffffffffffff168373ffffffffffffffffffffffffffffffffffffffff167fddf252ad1be2c89b69c2b068fc378daa952ba7f163c4a11628f55a4df523b3ef836040518082815260200191505060405180910390a3505050565b6040518060a00160405280600073ffffffffffffffffffffffffffffffffffffffff1681526020016060815260200160008152602001600015158152602001600081525090565b828054600181600116156101000203166002900490600052602060002090601f016020900481019282601f106135d857805160ff1916838001178555613606565b82800160010185558215613606579182015b828111156136055782518255916020019190600101906135ea565b5b5090506136139190613665565b5090565b6040518060c00160405280600073ffffffffffffffffffffffffffffffffffffffff168152602001600081526020016060815260200160608152602001600015158152602001600081525090565b61368791905b8082111561368357600081600090555060010161366b565b5090565b9056fe45524332303a207472616e7366657220746f20746865207a65726f206164647265737345524332303a20617070726f766520746f20746865207a65726f206164647265737345524332303a207472616e7366657220616d6f756e7420657863656564732062616c616e636545524332303a207472616e7366657220616d6f756e74206578636565647320616c6c6f77616e636545524332303a207472616e736665722066726f6d20746865207a65726f206164647265737345524332303a20617070726f76652066726f6d20746865207a65726f206164647265737345524332303a2064656372656173656420616c6c6f77616e63652062656c6f77207a65726fa165627a7a72305820ec152304d75352676d438f99be00584b415027554b27626d32c22a62d195b19a0029",
  "source": "pragma solidity ^0.5.0;\nimport \"./DocumentRequest.sol\";\n\ncontract Action is DocumentRequest{\n    event Accept(uint256 id);\n    event Reject(uint256 id);\n    function accept(uint256 loanRequestID, uint256 idx) external{\n        uint256 n = LRmapping[loanRequestID].length;\n        uint256 id = LRmapping[loanRequestID][idx];\n        for(uint256 i = 0; i < n; i++){\n            if(i != idx){\n                uint256 tmp = LRmapping[loanRequestID][i];\n                docRequests[tmp].isActive = false;\n                _returnFee(docRequests[tmp].bank);\n                emit Reject(tmp);\n            }\n        }\n        emit Accept(id);\n    }\n    function reject(uint256 loanRequestID, uint256 idx) external{\n        uint256 id = LRmapping[loanRequestID][idx];\n        docRequests[id].isActive = false;\n        _returnFee(docRequests[id].bank);\n        emit Reject(id);\n    }\n}\n\n",
  "sourcePath": "/Users/fronky/blockchain/flow-wize-blockchain/contracts/Action.sol",
  "compiler": {
    "name": "solc",
    "version": "0.5.8+commit.23d335f2.Emscripten.clang"
  },
  "schemaVersion": "3.0.16",
  "updatedAt": "2019-11-22T15:01:18.096Z",
  "devdoc": {
    "methods": {}
  },
  "userdoc": {
    "methods": {}
  }
}