{
  "contractName": "LoanRequest",
  "abi": [
    {
      "anonymous": false,
      "inputs": [
        {
          "indexed": true,
          "name": "requester",
          "type": "address"
        }
      ],
      "name": "RegisterRequester",
      "type": "event"
    },
    {
      "anonymous": false,
      "inputs": [
        {
          "indexed": true,
          "name": "requester",
          "type": "address"
        },
        {
          "indexed": false,
          "name": "requestId",
          "type": "uint256"
        },
        {
          "indexed": false,
          "name": "loanType",
          "type": "string"
        },
        {
          "indexed": false,
          "name": "amount",
          "type": "uint256"
        }
      ],
      "name": "RequestLoan",
      "type": "event"
    },
    {
      "anonymous": false,
      "inputs": [
        {
          "indexed": true,
          "name": "requester",
          "type": "address"
        },
        {
          "indexed": false,
          "name": "requestId",
          "type": "uint256"
        },
        {
          "indexed": false,
          "name": "loanType",
          "type": "string"
        },
        {
          "indexed": false,
          "name": "amount",
          "type": "uint256"
        }
      ],
      "name": "CancelRequest",
      "type": "event"
    },
    {
      "constant": false,
      "inputs": [],
      "name": "registerRequester",
      "outputs": [
        {
          "name": "",
          "type": "bool"
        }
      ],
      "payable": false,
      "stateMutability": "nonpayable",
      "type": "function"
    },
    {
      "constant": false,
      "inputs": [
        {
          "name": "loanType",
          "type": "string"
        },
        {
          "name": "amount",
          "type": "uint256"
        }
      ],
      "name": "requestLoan",
      "outputs": [
        {
          "name": "",
          "type": "uint256"
        }
      ],
      "payable": false,
      "stateMutability": "nonpayable",
      "type": "function"
    },
    {
      "constant": false,
      "inputs": [
        {
          "name": "id",
          "type": "uint256"
        }
      ],
      "name": "cancelRequest",
      "outputs": [
        {
          "name": "",
          "type": "bool"
        }
      ],
      "payable": false,
      "stateMutability": "nonpayable",
      "type": "function"
    },
    {
      "constant": true,
      "inputs": [],
      "name": "numOfMyRequests",
      "outputs": [
        {
          "name": "",
          "type": "uint256"
        }
      ],
      "payable": false,
      "stateMutability": "view",
      "type": "function"
    },
    {
      "constant": true,
      "inputs": [
        {
          "name": "id",
          "type": "uint256"
        }
      ],
      "name": "myRequestAt",
      "outputs": [
        {
          "name": "",
          "type": "uint256"
        },
        {
          "name": "",
          "type": "address"
        },
        {
          "name": "",
          "type": "string"
        },
        {
          "name": "",
          "type": "uint256"
        },
        {
          "name": "",
          "type": "bool"
        },
        {
          "name": "",
          "type": "uint256"
        }
      ],
      "payable": false,
      "stateMutability": "view",
      "type": "function"
    },
    {
      "constant": true,
      "inputs": [],
      "name": "numOfAllRequests",
      "outputs": [
        {
          "name": "",
          "type": "uint256"
        }
      ],
      "payable": false,
      "stateMutability": "view",
      "type": "function"
    },
    {
      "constant": true,
      "inputs": [
        {
          "name": "id",
          "type": "uint256"
        }
      ],
      "name": "requestAt",
      "outputs": [
        {
          "name": "",
          "type": "address"
        },
        {
          "name": "",
          "type": "string"
        },
        {
          "name": "",
          "type": "uint256"
        },
        {
          "name": "",
          "type": "bool"
        },
        {
          "name": "",
          "type": "uint256"
        }
      ],
      "payable": false,
      "stateMutability": "view",
      "type": "function"
    }
  ],
  "bytecode": "0x608060405234801561001057600080fd5b50610e6f806100206000396000f3fe608060405234801561001057600080fd5b506004361061007d5760003560e01c8063314801601161005b57806331480160146101e05780638f7980a8146102775780639d0a912514610295578063c16d454f146103885761007d565b8063043237471461008257806311710665146100a05780633015394c1461019a575b600080fd5b61008a6103aa565b6040518082815260200191505060405180910390f35b6100cc600480360360208110156100b657600080fd5b8101908080359060200190929190505050610455565b604051808781526020018673ffffffffffffffffffffffffffffffffffffffff1673ffffffffffffffffffffffffffffffffffffffff1681526020018060200185815260200184151515158152602001838152602001828103825286818151815260200191508051906020019080838360005b8381101561015a57808201518184015260208101905061013f565b50505050905090810190601f1680156101875780820380516001836020036101000a031916815260200191505b5097505050505050505060405180910390f35b6101c6600480360360208110156101b057600080fd5b8101908080359060200190929190505050610633565b604051808215151515815260200191505060405180910390f35b610261600480360360408110156101f657600080fd5b810190808035906020019064010000000081111561021357600080fd5b82018360208201111561022557600080fd5b8035906020019184600183028401116401000000008311171561024757600080fd5b909192939192939080359060200190929190505050610867565b6040518082815260200191505060405180910390f35b61027f610b25565b6040518082815260200191505060405180910390f35b6102c1600480360360208110156102ab57600080fd5b8101908080359060200190929190505050610b32565b604051808673ffffffffffffffffffffffffffffffffffffffff1673ffffffffffffffffffffffffffffffffffffffff1681526020018060200185815260200184151515158152602001838152602001828103825286818151815260200191508051906020019080838360005b8381101561034957808201518184015260208101905061032e565b50505050905090810190601f1680156103765780820380516001836020036101000a031916815260200191505b50965050505050505060405180910390f35b610390610cb1565b604051808215151515815260200191505060405180910390f35b6000600115156000803373ffffffffffffffffffffffffffffffffffffffff1673ffffffffffffffffffffffffffffffffffffffff16815260200190815260200160002060010160009054906101000a900460ff1615151461040b57600080fd5b6000803373ffffffffffffffffffffffffffffffffffffffff1673ffffffffffffffffffffffffffffffffffffffff16815260200190815260200160002060000180549050905090565b60008060606000806000806000803373ffffffffffffffffffffffffffffffffffffffff1673ffffffffffffffffffffffffffffffffffffffff16815260200190815260200160002060000188815481106104ac57fe5b9060005260206000200154905080600182815481106104c757fe5b906000526020600020906005020160000160009054906101000a900473ffffffffffffffffffffffffffffffffffffffff166001838154811061050657fe5b90600052602060002090600502016001016001848154811061052457fe5b9060005260206000209060050201600201546001858154811061054357fe5b906000526020600020906005020160030160009054906101000a900460ff166001868154811061056f57fe5b906000526020600020906005020160040154838054600181600116156101000203166002900480601f0160208091040260200160405190810160405280929190818152602001828054600181600116156101000203166002900480156106165780601f106105eb57610100808354040283529160200191610616565b820191906000526020600020905b8154815290600101906020018083116105f957829003601f168201915b505050505093509650965096509650965096505091939550919395565b6000600115156000803373ffffffffffffffffffffffffffffffffffffffff1673ffffffffffffffffffffffffffffffffffffffff16815260200190815260200160002060010160009054906101000a900460ff1615151461069457600080fd5b813373ffffffffffffffffffffffffffffffffffffffff16600182815481106106b957fe5b906000526020600020906005020160000160009054906101000a900473ffffffffffffffffffffffffffffffffffffffff1673ffffffffffffffffffffffffffffffffffffffff161461070b57600080fd5b60006001848154811061071a57fe5b906000526020600020906005020160030160006101000a81548160ff0219169083151502179055503373ffffffffffffffffffffffffffffffffffffffff167fbe82359834f1c621ed28d616957451b17ad5b000cc1eb4f8133f49c5d4790df7846001868154811061078857fe5b9060005260206000209060050201600101600187815481106107a657fe5b906000526020600020906005020160020154604051808481526020018060200183815260200182810382528481815460018160011615610100020316600290048152602001915080546001816001161561010002031660029004801561084d5780601f106108225761010080835404028352916020019161084d565b820191906000526020600020905b81548152906001019060200180831161083057829003601f168201915b505094505050505060405180910390a26001915050919050565b6000600115156000803373ffffffffffffffffffffffffffffffffffffffff1673ffffffffffffffffffffffffffffffffffffffff16815260200190815260200160002060010160009054906101000a900460ff161515146108c857600080fd5b6108d0610d57565b6040518060a001604052803373ffffffffffffffffffffffffffffffffffffffff16815260200186868080601f016020809104026020016040519081016040528093929190818152602001838380828437600081840152601f19601f8201169050808301925050505050505081526020018481526020016001151581526020014281525090506000600180839080600181540180825580915050906001820390600052602060002090600502016000909192909190915060008201518160000160006101000a81548173ffffffffffffffffffffffffffffffffffffffff021916908373ffffffffffffffffffffffffffffffffffffffff16021790555060208201518160010190805190602001906109ea929190610d9e565b506040820151816002015560608201518160030160006101000a81548160ff0219169083151502179055506080820151816004015550500390506000803373ffffffffffffffffffffffffffffffffffffffff1673ffffffffffffffffffffffffffffffffffffffff1681526020019081526020016000206000018190806001815401808255809150509060018203906000526020600020016000909192909190915055503373ffffffffffffffffffffffffffffffffffffffff167ff33b8268df035d5c6e1973c61f49b84297517f849a596590753f2ae35f1f2e7b8288888860405180858152602001806020018381526020018281038252858582818152602001925080828437600081840152601f19601f8201169050808301925050509550505050505060405180910390a280925050509392505050565b6000600180549050905090565b60006060600080600060018681548110610b4857fe5b906000526020600020906005020160000160009054906101000a900473ffffffffffffffffffffffffffffffffffffffff1660018781548110610b8757fe5b906000526020600020906005020160010160018881548110610ba557fe5b90600052602060002090600502016002015460018981548110610bc457fe5b906000526020600020906005020160030160009054906101000a900460ff1660018a81548110610bf057fe5b906000526020600020906005020160040154838054600181600116156101000203166002900480601f016020809104026020016040519081016040528092919081815260200182805460018160011615610100020316600290048015610c975780601f10610c6c57610100808354040283529160200191610c97565b820191906000526020600020905b815481529060010190602001808311610c7a57829003601f168201915b505050505093509450945094509450945091939590929450565b600060016000803373ffffffffffffffffffffffffffffffffffffffff1673ffffffffffffffffffffffffffffffffffffffff16815260200190815260200160002060010160006101000a81548160ff0219169083151502179055503373ffffffffffffffffffffffffffffffffffffffff167f70279d93f0e3a3543f654edc0ace7603cd037604bedd6503597ed0e923b4536860405160405180910390a26001905090565b6040518060a00160405280600073ffffffffffffffffffffffffffffffffffffffff1681526020016060815260200160008152602001600015158152602001600081525090565b828054600181600116156101000203166002900490600052602060002090601f016020900481019282601f10610ddf57805160ff1916838001178555610e0d565b82800160010185558215610e0d579182015b82811115610e0c578251825591602001919060010190610df1565b5b509050610e1a9190610e1e565b5090565b610e4091905b80821115610e3c576000816000905550600101610e24565b5090565b9056fea165627a7a7230582051363636aba63360579c201e59f25a70043fdcd0fb3b9f805ec1705514922ade0029",
  "source": "pragma solidity ^0.5.0;\n\ncontract LoanRequest {\n\n  event RegisterRequester(address indexed requester);\n  event RequestLoan(address indexed requester, uint256 requestId, string loanType, uint256 amount);\n  event CancelRequest(address indexed requester, uint256 requestId, string loanType, uint256 amount);\n\n  struct Requester {\n      uint256[] requests;\n      bool exists;\n  }\n\n  struct LRequest {\n        address requester;\n        string loanType;\n        uint256 amount;\n        bool isActive;\n        uint256 timestamp;\n  }\n  \n  modifier isRequester() {\n      require(requesters[msg.sender].exists == true);\n      _;\n  }\n  \n  modifier isMyRequest(uint256 id) {\n      require(requests[id].requester == msg.sender);\n      _;\n  }\n  \n  mapping(address => Requester) internal requesters;\n  LRequest[] internal requests;\n  \n  function registerRequester() external returns(bool) {\n      requesters[msg.sender].exists = true;\n      emit RegisterRequester(msg.sender);\n      return true;\n  }\n  \n  function requestLoan(string calldata loanType, uint256 amount) external isRequester returns(uint256) {\n      LRequest memory lRequest = LRequest(msg.sender, loanType, amount , true, now);\n      uint256 id = requests.push(lRequest) - 1;\n      requesters[msg.sender].requests.push(id);\n      emit RequestLoan(msg.sender, id, loanType, amount);\n      return id;\n  }\n  function cancelRequest(uint256 id) external isRequester isMyRequest(id) returns(bool){\n      requests[id].isActive = false;\n      emit CancelRequest(msg.sender, id, requests[id].loanType, requests[id].amount);\n      return true;\n  }\n  function numOfMyRequests() external view isRequester returns(uint256){\n      return requesters[msg.sender].requests.length;\n  }\n  function myRequestAt(uint256 id) external view returns(uint256, address, string memory, uint256, bool, uint256){\n      uint256 idx = requesters[msg.sender].requests[id];\n      return (idx, requests[idx].requester, requests[idx].loanType, requests[idx].amount, requests[idx].isActive, requests[idx].timestamp);\n  }\n  function numOfAllRequests() external view returns(uint256){\n      return requests.length;\n  }\n  function requestAt(uint256 id) external view returns(address, string memory, uint256, bool, uint256){\n      return (requests[id].requester, requests[id].loanType, requests[id].amount, requests[id].isActive, requests[id].timestamp);\n  }\n  \n}\n",
  "sourcePath": "/Users/fronky/blockchain/flow-wize-blockchain/contracts/LoanRequest.sol",
  "compiler": {
    "name": "solc",
    "version": "0.5.8+commit.23d335f2.Emscripten.clang"
  },
  "schemaVersion": "3.0.16",
  "updatedAt": "2019-11-20T12:52:44.214Z",
  "devdoc": {
    "methods": {}
  },
  "userdoc": {
    "methods": {}
  }
}